:100000000C9439000C9461000C9461000C94610014
:100010000C9461000C9461000C9461000C946100DC
:100020000C9461000C9461000C9461000C946100CC
:100030000C9461000C9461000C9461000C946100BC
:100040000C943D020C9461000C940B020C94E5019D
:100050000C9461000C9461000C9461000C9461009C
:100060000C9461000C946100524F42424F2D0000ED
:100070001B0411241FBECFEFD8E0DEBFCDBF11E0BF
:10008000A0E0B1E0E0E1F9E002C005900D92AC31F2
:10009000B107D9F722E0ACE1B1E001C01D92AA346A
:1000A000B207E1F710E0C9E3D0E004C02197FE01F8
:1000B0000E947204C833D107C9F70E9487020C94CA
:1000C00086040C940000CF92DF92EF92FF920F9380
:1000D0001F93CF93DF936C017A018B01C0E0D0E0D6
:1000E000CE15DF0589F0D8016D918D01D601ED9116
:1000F000FC910190F081E02DC6010995892B11F446
:100100007E0102C02196ECCFC701DF91CF911F91F4
:100110000F91FF90EF90DF90CF900895089580E0C9
:1001200090E00895FC01538D448D252F30E0842FFD
:1001300090E0821B930B541710F0CF96089501970F
:100140000895FC01918D828D981761F0828DDF01F9
:10015000A80FB11D5D968C91928D9F5F9F73928FBA
:1001600090E008958FEF9FEF0895FC01918D828DAF
:10017000981731F0828DE80FF11D858D90E008957C
:100180008FEF9FEF0895FC01918D228D892F90E0D4
:10019000805C9F4F821B91098F73992708958DEA88
:1001A00091E00E94C30021E0892B09F420E0822F16
:1001B0000895FC01848DDF01A80FB11DA35ABF4F24
:1001C0002C91848D90E001968F739927848FA68956
:1001D000B7892C93A089B1898C9180648C93938D7D
:1001E000848D981306C00288F389E02D80818F7D6D
:1001F00080830895EF92FF920F931F93CF93DF9325
:10020000EC0181E0888F9B8D8C8D981305C0E88967
:10021000F989808185FD24C0F62E0B8D10E00F5FDB
:100220001F4F0F731127E02E8C8DE8120CC00FB6F4
:1002300007FCFACFE889F989808185FFF5CFCE01E7
:100240000E94D900F1CF8B8DFE01E80FF11DE35A1A
:10025000FF4FF0820B8FEA89FB898081806207C0A3
:10026000EE89FF896083E889F989808180648083D1
:1002700081E090E0DF91CF911F910F91FF90EF907F
:100280000895CF93DF93EC01888D8823C9F0EA8924
:10029000FB89808185FD05C0A889B9898C9186FD7F
:1002A0000FC00FB607FCF5CF808185FFF2CFA8897C
:1002B000B9898C9185FFEDCFCE010E94D900E7CF9F
:1002C000DF91CF91089580E090E0892B29F00E9482
:1002D000CF0081110C94000008953FB7F8948091ED
:1002E000210190912201A0912301B091240126B512
:1002F000A89B05C02F3F19F00196A11DB11D3FBF5E
:10030000BA2FA92F982F8827820F911DA11DB11DEB
:10031000BC01CD0142E0660F771F881F991F4A95E7
:10032000D1F708958F929F92AF92BF920F931F9330
:10033000CF93DF93CDB7DEB7A1970FB6F894DEBFAA
:100340000FBECDBF19A2423008F44AE08E010F5D06
:100350001F4F842E912CA12CB12CA50194010E9439
:100360005004E62FB901CA0101501109EA3014F412
:10037000E05D01C0E95CD801EC93232B242B252BF5
:1003800061F70115110571F0F80101900020E9F7FE
:100390003197AF01401B510BB8018DEA91E00E94EB
:1003A000630002C080E090E0A1960FB6F894DEBF33
:1003B0000FBECDBFDF91CF911F910F91BF90AF9036
:1003C0009F908F9008950E9478041F920F920FB60D
:1003D0000F9211242F933F934F935F936F937F93CB
:1003E0008F939F93AF93BF93EF93FF938DEA91E029
:1003F0000E94D900FF91EF91BF91AF919F918F9192
:100400007F916F915F914F913F912F910F900FBE10
:100410000F901F9018951F920F920FB60F921124F4
:100420002F938F939F93EF93FF93E091BD01F091F2
:10043000BE018081E091C301F091C40182FD12C030
:1004400090818091C6018F5F8F732091C7018217C1
:1004500051F0E091C601F0E0E355FE4F958F809397
:10046000C60101C08081FF91EF919F918F912F91E3
:100470000F900FBE0F901F9018951F920F920FB6FE
:100480000F9211242F933F938F939F93AF93BF931A
:1004900080911D0190911E01A0911F01B09120013A
:1004A00030911C0123E0230F2D3720F40196A11D6C
:1004B000B11D05C026E8230F0296A11DB11D209392
:1004C0001C0180931D0190931E01A0931F01B09306
:1004D00020018091210190912201A0912301B091EE
:1004E00024010196A11DB11D809321019093220149
:1004F000A0932301B0932401BF91AF919F918F915D
:100500003F912F910F900FBE0F901F9018957894E8
:1005100084B5826084BD84B5816084BD85B5826008
:1005200085BD85B5816085BD80916E0081608093B9
:100530006E00109281008091810082608093810022
:100540008091810081608093810080918000816032
:10055000809380008091B10084608093B10080918D
:10056000B00081608093B00080917A0084608093B5
:100570007A0080917A00826080937A0080917A007C
:10058000816080937A0080917A00806880937A00FD
:100590001092C100C9E7D1E0E12CF12CC7010E9403
:1005A000480489932FEFE21AF20A82E3E816F10475
:1005B000A9F7E9E7F1E0CF018957914021912D3268
:1005C000D1F70196E4E6F1E0DC01A758BE4F2C918B
:1005D00001962D3211F02193F7CFEFE4F1E0DC0129
:1005E000A758BE4F2C9101962D3211F02193F7CFD1
:1005F000EAE3F1E0DC01A758BE4F2C9101962D32C1
:1006000011F02193F7CFFC01E758FE4FA5E2B1E0CE
:100610008191882311F08D93FBCF62E171E084E634
:1006200091E00E947D04892B69F464E171E08FE41C
:1006300091E00E947D04892B29F41092AC01109264
:10064000AB0137C066E171E084E691E00E947D0471
:10065000892BB1F464E171E08FE491E00E947D04A4
:10066000892B19F481E090E020C068E171E08FE40B
:1006700091E00E947D04892B19F482E090E015C07E
:100680006AE171E084E691E00E947D04892B59F4CF
:1006900064E171E08FE491E00E947D04892B19F4FC
:1006A00085E090E002C08FE097E29093AC018093E8
:1006B000AB01E091BD01F091BE0182E08083E09149
:1006C000B901F091BA011082E091BB01F091BC0137
:1006D00080E180831092C501E091C101F091C201D7
:1006E00086E08083E091BF01F091C001808180614C
:1006F0008083E091BF01F091C00180818860808398
:10070000E091BF01F091C001808180688083E09119
:10071000BF01F091C00180818F7D8083C8E6D0E069
:10072000FE01649161110AC0C090AB01D090AC0190
:10073000F0E1CF16F7E2DF0684F50EC0E091AD01DF
:10074000F091AE010190F081E02D8DEA91E00995E4
:100750002196892B29F7E8CF60E38DEA91E00E948A
:10076000FA0028EEC21623E0D206BCF460E38DEA5C
:1007700091E00E94FA0084E6C816D10474F460E3A4
:100780008DEA91E00E94FA00EAE0CE16D1042CF442
:1007900060E38DEA91E00E94FA000D2C000CEE0857
:1007A000FF08F7FE14C0E091AD01F091AE01019099
:1007B000F081E02D6DE28DEA91E0099566277727BB
:1007C000CB016C197D098E099F094AE003C04AE0FC
:1007D000C701B6010E9492016EE28DEA91E00E948B
:1007E000FA000E946D014B015C0188EEC82E83E087
:1007F000D82EE12CF12C0E946D01DC01CB0188196F
:100800009909AA09BB09883E9340A105B10558F092
:10081000F1E0CF1AD108E108F10828EE820E23E0BA
:10082000921EA11CB11CC114D104E104F10419F7FA
:100830000E94630173CFEDEAF1E01382128288EE29
:1008400093E0A0E0B0E084839583A683B78384E03F
:1008500091E09183808385EC90E09587848784EC98
:1008600090E09787868780EC90E0918B808B81EC7D
:1008700090E0938B828B82EC90E0958B848B86EC5E
:1008800090E0978B868B118E128E138E148E0895A6
:10089000F999FECF92BD81BDF89A992780B5089548
:1008A000A1E21A2EAA1BBB1BFD010DC0AA1FBB1F74
:1008B000EE1FFF1FA217B307E407F50720F0A21BE6
:1008C000B30BE40BF50B661F771F881F991F1A9453
:1008D00069F760957095809590959B01AC01BD017D
:1008E000CF010895EE0FFF1F0590F491E02D0994BC
:1008F00081E090E0F8940C948604FB01DC018D917A
:10090000019080190110D9F3990B0895F894FFCF45
:1009100000000000FA00630092004101C300A10042
:0C092000B500520031004C0033004F00C5
:00000001FF
