:100000000C9470000C9498000C9498000C94980038
:100010000C9498000C9498000C9498000C944F0643
:100020000C9498000C9498000C9498000C949800F0
:100030000C9498000C9498000C9498000C949800E0
:100040000C9405060C9498000C94F7060C94D106B9
:100050000C9498000C9498000C9498000C949800C0
:100060000C9498000C949800AD0A5E0A630AA00AEA
:10007000B00A790AD30A303030303500524F42424C
:100080004F2D0000000000240027002A000000007F
:1000900000230026002900000000080002010000E3
:1000A0000304070000000000000000010204081023
:1000B00020408001020408102001020408102000E2
:1000C000000000250028002B00040404040404049C
:1000D000040202020202020303030303030288076D
:1000E00011241FBECFEFD8E0DEBFCDBF11E0A0E0EE
:1000F000B1E0E8E8F7E102C005900D92A035B10744
:10010000D9F722E0A0E5B1E001C01D92AE3AB207F6
:10011000E1F710E0C0E7D0E004C02197FE010E94A3
:100120009F0BCF36D107C9F70E94C8070C94C20BAA
:100130000C940000833081F028F4813099F08230F3
:10014000A1F008958730A9F08830B9F08430D1F457
:10015000809180008F7D03C0809180008F77809395
:100160008000089584B58F7702C084B58F7D84BDEB
:1001700008958091B0008F7703C08091B0008F7D8B
:100180008093B0000895CF93DF93282F30E0F901DA
:10019000E956FF4F8491F901E555FF4FD491F901DC
:1001A000E753FF4FC491CC2391F081110E949A0034
:1001B000EC2FF0E0EE0FFF1FE357FF4FA591B49136
:1001C000EC91ED2381E090E021F480E002C080E03A
:1001D00090E0DF91CF9108951F93CF93DF93282F65
:1001E00030E0F901E956FF4F8491F901E555FF4FE1
:1001F000D491F901E753FF4FC491CC23C1F0162FDE
:1002000081110E949A00EC2FF0E0EE0FFF1FE154E5
:10021000FF4FA591B4919FB7F894111104C08C9130
:10022000D095D82302C0EC91DE2BDC939FBFDF91E9
:10023000CF911F910895CF93DF9390E0FC01E55596
:10024000FF4F2491FC01E753FF4F8491882361F114
:1002500090E0880F991FFC01ED57FF4FC591D49195
:10026000FC01E154FF4FA591B491611109C09FB702
:10027000F8948881209582238883EC912E230BC0EB
:10028000623061F49FB7F8948881322F30958323D0
:100290008883EC912E2B2C939FBF06C08FB7F894C8
:1002A000E8812E2B28838FBFDF91CF9108954F9245
:1002B0005F926F927F928F929F92AF92BF92CF92F6
:1002C000DF92EF92FF921F93CF93DF93EC01809127
:1002D0000201833021F08F3F09F00AC204C0EDED26
:1002E000F0E014916FC083E080930201EDEDF0E047
:1002F00014911F3F09F4FCC1113009F440C030F1E2
:10030000123009F05FC01092B0001092B1008091DD
:10031000B00082608093B0008091B10081608093D2
:10032000B100ECECF0E0E491F0E0EE0FFF1FE154DF
:10033000FF4F859194919093FA018093F901EEEA31
:10034000F0E0E491E093F80112E0CDC114BC15BCDB
:1003500084B5826084BD85B5816085BDECECF0E03C
:10036000E491F0E0EE0FFF1FE154FF4F859194916F
:10037000EEEAF0E0E491E093FC0110E0B4C11092E9
:1003800080001092810080918100886080938100BC
:1003900080918100816080938100ECECF0E0E49139
:1003A000F0E0EE0FFF1FE154FF4F85919491EEEACC
:1003B000F0E0E491E093FB0161E083E00E941B0127
:1003C00011E0B1C017FD94C161E083E00E941B0100
:1003D000812F8D7F09F0A7C04E01A12CB12C60E0C8
:1003E00072E18AE790E0A50194010E94800B290147
:1003F0003A0169017A0121E0C21AD108E108F10845
:100400008FEFC816D104E104F10409F008F44BC0E1
:1004100060E472E48FE090E0A50194010E94800BFB
:1004200069017A0181E0C81AD108E108F1081230A7
:1004300001F52FEFC216D104E104F10409F008F42C
:10044000EAC060E970ED83E090E0A50194010E94AC
:10045000800B69017A0181E0C81AD108E108F1082E
:100460002FEFC216D104E104F10409F030F583E066
:1004700053C08FEFC816D104E104F104B1F0A8F025
:1004800068E478EE81E090E0A50194010E94800B81
:1004900069017A0181E0C81AD108E108F108112345
:1004A00009F4EEC0E4C081E001C082E0111134C063
:1004B00095B5987F892B85BD68C068E478EE81E0AA
:1004C00090E0A50194010E94800B69017A0181E00E
:1004D000C81AD108E108F1082FEFC216D104E104CF
:1004E000F10409F008F495C064E274EF80E090E054
:1004F000A50194010E94800B69017A0181E0C81A6C
:10050000D108E108F1082FEFC216D104E104F1048B
:1005100011F008F082C085E09091B100987F892B9E
:100520008093B10032C04E01A12CB12C60E072E189
:100530008AE790E0A50194010E94800B69017A018D
:1005400081E0C81AD108E108F108C114D10421E002
:10055000E206F10488F068E478EE81E090E0A5011D
:1005600094010E94800B69017A0181E0C81AD108C8
:10057000E108F10883E001C081E0113031F490918D
:100580008100987F892B809381009E01220F331F69
:10059000A4E6B0E00E94A50B28EE33E040E050E076
:1005A0000E945E0B113099F0123019F11111A0C0A8
:1005B000C7BC209305023093060240930702509374
:1005C000080280916E00826080936E0091C0D0928C
:1005D0008900C09288002093010230930202409368
:1005E00003025093040280916F00826080936F0039
:1005F0007FC0C092B3002093FD013093FE01409371
:10060000FF0150930002809170008260809370001F
:100610006FC084E081CF82E07FCF62E17AE780E043
:1006200090E0A50194010E94800B69017A0181E0AC
:10063000C81AD108E108F1088FEFC816D104E10407
:10064000F10499F090F0D301C2012AE0B595A79585
:10065000979587952A95D1F76C017D0121E0C21A03
:10066000D108E108F10887E057CF86E055CF2FEF9A
:10067000C216D104E104F10409F078F684E016CF43
:100680008FEFC816D104E104F10459F150F162E191
:100690007AE780E090E0A50194010E94800B690157
:1006A0007A0181E0C81AD108E108F1082FEFC216DB
:1006B000D104E104F10499F090F0D301C2013AE0D1
:1006C000B595A795979587953A95D1F76C017D01DA
:1006D00021E0C21AD108E108F10885E0E9CE84E002
:1006E000E7CE83E0E5CE61E083E00E941B0174CE9B
:1006F000DF91CF911F91FF90EF90DF90CF90BF904F
:10070000AF909F908F907F906F905F904F900895E3
:100710008E3008F08E508770806480937C008091CA
:100720007A00806480937A0080917A0086FDFCCF05
:10073000809178002091790090E0922B08953FB746
:10074000F8948091F4019091F501A091F601B09197
:10075000F70126B5A89B05C02F3F19F00196A11DF2
:10076000B11D3FBFBA2FA92F982F8827820F911D47
:10077000A11DB11DBC01CD0142E0660F771F881F8E
:10078000991F4A95D1F708958F929F92AF92BF9289
:10079000CF92DF92EF92FF920E949F034B015C0188
:1007A00084E6C82ED12CE12CF12C0E949F03DC01A1
:1007B000CB0188199909AA09BB09883E9340A10574
:1007C000B10598F321E0C21AD108E108F10888EEDA
:1007D000880E83E0981EA11CB11CC114D104E10451
:1007E000F10419F7FF90EF90DF90CF90BF90AF909A
:1007F0009F908F900895CF92DF92EF92FF920F9388
:100800001F93CF93DF936C017A018B01C0E0D0E09E
:10081000CE15DF0581F0D8016D918D01D601ED91E6
:10082000FC910190F081E02DC6010995892B11F012
:100830002196EECF7E01C701DF91CF911F910F91DD
:10084000FF90EF90DF90CF900895089580E090E0C2
:100850000895FC01538D448D252F30E0842F90E0C6
:10086000821B930B541710F0CF96089501970895AB
:10087000FC01918D828D981761F0828DDF01A80FA8
:10088000B11D5D968C91928D9F5F9F73928F90E0CA
:1008900008958FEF9FEF0895FC01918D828D981739
:1008A00031F0828DE80FF11D858D90E008958FEF76
:1008B0009FEF0895FC01918D228D892F90E0805C3F
:1008C0009F4F821B91098F739927089589E092E0C9
:1008D0000E945A0421E0892B09F420E0822F089518
:1008E000FC01848DDF01A80FB11DA35ABF4F2C91CD
:1008F000848D90E001968F739927848FA689B7899C
:100900002C93A089B1898C91837080648C93938D92
:10091000848D981306C00288F389E02D80818F7D35
:1009200080830895EF92FF920F931F93CF93DF93ED
:10093000EC0181E0888F9B8D8C8D981305C0E88930
:10094000F989808185FD26C0F62E0B8D10E00F5FA2
:100950001F4F0F731127E02E8C8DE8120CC00FB6BD
:1009600007FCFACFE889F989808185FFF5CFCE01B0
:100970000E947004F1CF8B8DFE01E80FF11DE35A48
:10098000FF4FF0829FB7F8940B8FEA89FB89808133
:1009900080620AC09FB7F894EE89FF896083E88976
:1009A000F98980818370806480839FBF81E090E0BB
:1009B000DF91CF911F910F91FF90EF900895682FD5
:1009C00089E092E00C9492046DE289E092E00C944C
:1009D00092040F931F93CF93DF938C01C0E0D0E07C
:1009E000F801EC0FFD1F6491662341F089E092E06D
:1009F0000E949204892B11F02196F2CFCE01DF9153
:100A0000CF911F910F910895CF93DF93EC01888DC3
:100A10008823C9F0EA89FB89808185FD05C0A88902
:100A2000B9898C9186FD0FC00FB607FCF5CF808188
:100A300085FFF2CFA889B9898C9185FFEDCFCE01D2
:100A40000E947004E7CFDF91CF91089580E090E09D
:100A5000892B29F00E94660481110C9400000895EE
:100A6000CF9383E290E00E94DF0488E00E94C300FD
:100A7000C1E0019709F0C0E089E00E94C30001973E
:100A800009F4C2608AE00E94C300019709F4C460BF
:100A90008BE00E94C300019709F4C8608CE00E94BB
:100AA000C300019709F4C0618DE00E94C300019763
:100AB00009F4C0626C2F89E092E00E94920480E009
:100AC0000E948803C82F692F89E092E00E94920457
:100AD0006C2F89E092E00E94920481E00E948803DA
:100AE000C82F692F89E092E00E9492046C2F89E060
:100AF00092E00E94920482E00E948803C82F692F2E
:100B000089E092E00E9492046C2F89E092E00E94BA
:100B10009204C09182016091830189E092E00E9479
:100B200092046C2F89E092E00E94920484E00E947B
:100B30008803C82F692F89E092E00E9492046C2FED
:100B400089E092E00E94920485E00E948803C82F09
:100B5000692F89E092E00E9492046C2F89E092E074
:100B60000E94920486E00E948803C82F692F89E0C2
:100B700092E00E9492046C2F89E092E00E9492041D
:100B800087E00E948803C82F692F89E092E00E94C5
:100B900092046C2F89E092E0CF910C9492040F9311
:100BA0001F93CF93DF93C7E0D0E0082F10E0B80188
:100BB0000C2E02C0759567950A94E2F7617082E089
:100BC0000E94EC0061E084E00E94EC0060E084E0C0
:100BD0000E94EC00219758F7DF91CF911F910F9160
:100BE0000895009769F0FC0101900020E9F7319722
:100BF000AF01481B590BBC0189E092E00C94FB0348
:100C000080E090E008950E94B40B1F920F920FB6FF
:100C10000F9211242F933F938F939F93AF93BF9382
:100C20008091A6029091A702A091A802B091A9027A
:100C30003091F30123E0230F2D3720F40196A11DFD
:100C4000B11D05C026E8230F0296A11DB11D2093FA
:100C5000F3018093A6029093A702A093A802B093F9
:100C6000A9028091F4019091F501A091F601B09153
:100C7000F7010196A11DB11D8093F4019093F50138
:100C8000A093F601B093F701BF91AF919F918F911F
:100C90003F912F910F900FBE0F901F9018951F92AC
:100CA0000F920FB60F9211242F933F934F935F93A0
:100CB0006F937F938F939F93AF93BF93EF93FF9324
:100CC0008091FD019091FE01A091FF01B091000281
:100CD000892B8A2B8B2B59F19091F801E091F90126
:100CE000F091FA018081892780838091FD019091A4
:100CF000FE01A091FF01B0910002181619061A0614
:100D00001B060CF03DC08091FD019091FE01A09169
:100D1000FF01B09100020197A109B1098093FD0183
:100D20009093FE01A093FF01B093000229C080912F
:100D30000201EDEDF0E0E4919FEF90930201E130CC
:100D4000B9F098F0E230C9F4909170009D7F9093D3
:100D5000700091E09093B0009091B100987F946002
:100D60009093B1001092B30008C010926E0005C0BD
:100D700090916F009D7F90936F0060E00E94EC0067
:100D8000FF91EF91BF91AF919F918F917F916F9163
:100D90005F914F913F912F910F900FBE0F901F9039
:100DA00018951F920F920FB60F9211242F933F9315
:100DB0004F935F936F937F938F939F93AF93BF9363
:100DC000EF93FF9389E092E00E947004FF91EF910E
:100DD000BF91AF919F918F917F916F915F914F9153
:100DE0003F912F910F900FBE0F901F9018951F925B
:100DF0000F920FB60F9211242F938F939F93EF931F
:100E0000FF93E0911902F0911A028081E0911F0294
:100E1000F091200282FD12C09081809122028F5FAA
:100E20008F7320912302821751F0E0912202F0E0AB
:100E3000E75FFD4F958F8093220201C08081FF9173
:100E4000EF919F918F912F910F900FBE0F901F9058
:100E500018951F93CF93DF93182FEB0161E00E9449
:100E60001B01209711F460E004C0CF3FD10539F495
:100E700061E0812FDF91CF911F910C94EC00E12F65
:100E8000F0E0E956FF4FE491E330F9F048F4E13047
:100E9000B9F0E230A1F584B5806284BDC8BD34C02C
:100EA000E730E9F0E83019F1E43049F5809180004D
:100EB000806280938000D0938B00C0938A0024C00E
:100EC00084B5806884BDC7BD1FC0809180008068E4
:100ED00080938000D0938900C093880015C08091D2
:100EE000B00080688093B000C093B3000DC08091C3
:100EF000B00080628093B000C093B40005C0C038D9
:100F0000D1050CF0B5CFAFCFDF91CF911F910895F0
:100F1000E9E0F2E01382128288EE93E0A0E0B0E014
:100F200084839583A683B78389E391E0918380834B
:100F300085EC90E09587848784EC90E0978786879E
:100F400080EC90E0918B808B81EC90E0938B828B96
:100F500082EC90E0958B848B86EC90E0978B868B6F
:100F6000118E128E138E148E2FB7F8948091A602D4
:100F70009091A702A091A802B091A9022FBF8093DF
:100F8000AA029093AB02A093AC02B093AD02089575
:100F9000CF93DF93CDB7DEB7A1970FB6F894DEBF3E
:100FA0000FBECDBF789484B5826084BD84B5816066
:100FB00084BD85B5826085BD85B5816085BD809124
:100FC0006E00816080936E0010928100809181009C
:100FD0008260809381008091810081608093810094
:100FE000809180008160809380008091B100846056
:100FF0008093B1008091B00081608093B0008091B7
:101000007A00846080937A0080917A008260809375
:101010007A0080917A00816080937A0080917A00D2
:10102000806880937A001092C10060E5E62E61E04E
:10103000F62E00E010E0C8010E94560BD7018D93F8
:101040007D010F5F1F4F02331105A9F7A0E5B1E045
:10105000FD01E055F1408D918D32D1F7EF5AFE4FF1
:101060008BED91E0DF01A055B14021912D3221F0AF
:10107000DC012D93CD01F6CFAF5ABE4F86EC91E047
:10108000FD01E055F1402D912D3221F0FC0121931D
:10109000CF01F6CFEF5AFE4FA1EBB1E0CF01805563
:1010A000914021912D3211F02D93F8CFFC01EF5A90
:1010B000FE4FACE9B1E0819190ED980F9A3010F4B9
:1010C0008D93F9CF67E471E08BED91E00E94B90B4D
:1010D000892B69F469E471E086EC91E00E94B90B18
:1010E000892B29F41092F1011092F00124C06BE4D5
:1010F00071E08BED91E00E94B90B892BB1F469E4AA
:1011000071E086EC91E00E94B90B892B19F481E023
:1011100090E00DC06DE471E086EC91E00E94B90BA7
:10112000892B19F482E090E002C08FE097E290935F
:10113000F1018093F001E0911902F0911A0282E02E
:101140008083E0911502F09116021082E09117025F
:10115000F091180280E1808310922102E0911D023B
:10116000F0911E0286E08083E0911B02F0911C0248
:10117000808180618083E0911B02F0911C0280815C
:1011800088608083E0911B02F0911C02808180685E
:101190008083E0911B02F0911C0280818F7D80830F
:1011A0001092F20161E084E00E941B0161E082E0A4
:1011B0000E941B0161E08EE00E941B0161E082E061
:1011C0000E941B0161E083E00E941B0161E084E05A
:1011D0000E941B0161E085E00E941B0161E086E046
:1011E0000E941B0161E087E00E941B0160E08DE02E
:1011F0000E941B0161E08EE00E94EC0058ECE52E9D
:10120000F12C00E010E0DD24D3948D2D002E01C0E0
:10121000880F0A94EAF70E94CF050F5F1F4FC7019E
:101220000E9457010E94C403F8ECEF0EF11C083035
:10123000110559F780E00E94CF0596EC292E91E028
:10124000392E2CE9E22E21E0F22E3AE0832E912C69
:10125000A12CB12CC12C44E0D42E89E092E00E9454
:101260005A04892B09F4BBC189E092E00E9438043A
:101270002091F2012111E6C09C013327233631056C
:1012800009F4D8C054F42136310509F4D0C00CF06B
:10129000D1C02032310581F0A2C12536310509F4D3
:1012A000C9C00CF4C7C02636310509F4C3C02736BF
:1012B000310509F4BFC093C18CE790E00E94E904B6
:1012C0000091F0011091F101003127E21207D4F4EE
:1012D00080E390E00E94DF04083E83E0180794F466
:1012E00080E390E00E94DF04043611055CF480E3A3
:1012F00090E00E94DF040A30110524F480E390E0BE
:101300000E94DF042801110F6608770877FE1DC0D0
:101310000E94E40422273327A9012419350946092C
:10132000570919A2DE0191963D01CA01B901A50133
:1013300094010E945E0B605DF30162933F012115F1
:1013400031054105510589F715C0A301920119A284
:10135000CE0181963C01CA01B901A50194010E9408
:101360005E0B605DD3016E933D0121153105410592
:10137000510589F7C3010E94F1058DE290E00E94BA
:10138000DF0486E790E00E94E9048DE290E00E948D
:10139000DF048BED91E00E94F1050E94E404F1016D
:1013A00001900020E9F731978F01065C114005306C
:1013B00011053CF480E390E00E94DF040F5F1F4FB3
:1013C000F6CF86EC91E00E94F1050E94E404E1EB87
:1013D000F1E001900020E9F731978F01015B1140A6
:1013E000053011053CF480E390E00E94DF040F5FBC
:1013F0001F4FF6CF81EB91E00E94F1050E94E404BB
:10140000F70101900020E9F731978F010C59114045
:10141000043111053CF480E390E00E94DF040F5F8B
:101420001F4FF6CF8CE991E00E94F105D8C0809360
:101430009B0128C080939B0182E08093F20110926F
:101440009A01CDC0223029F590919A01E92FF0E060
:10145000EA57FE4F808381E0890F80939A01909133
:101460009B01943661F028F4923649F0933639F0B6
:10147000B6C0963621F018F0973641F0B0C08823F8
:1014800009F4ADC083E08093F201A9C08230D0F7A7
:10149000A6C0233009F0A3C0843209F09EC0E091B9
:1014A0009B018E2F90E0FC01E156F109E730F10538
:1014B00008F093C0EC5CFF4F0C949F0B8091860169
:1014C0000E94CF054AC01091860110FF02C061E062
:1014D00001C060E085E00E94EC0011FF02C061E005
:1014E00001C060E086E00E94EC0012FF24C061E0D1
:1014F00023C01091860110FF04C060E082E00E94CA
:10150000EC0011FF04C060E083E00E94EC0012FFD9
:1015100004C060E084E00E94EC0013FF04C060E0BF
:1015200085E00E94EC0014FF04C060E086E00E94A9
:10153000EC0015FF12C060E087E00E94EC000DC0D7
:10154000E0918601F0E0EE0FFF1FED5FFE4F80811E
:1015500091810E9457010E94C4030E9430053DC042
:101560001091860110FF04C061E082E00E94EC004F
:1015700011FF04C061E083E00E94EC0012FF04C090
:1015800061E084E00E94EC0013FF04C061E085E0AC
:101590000E94EC0014FF04C061E086E00E94EC00B1
:1015A00015FFDBCFA4CF009186011091870100FFCA
:1015B00005C0612F70E083E00E94290701FF05C08C
:1015C000612F70E085E00E94290702FFC6CF612FDE
:1015D00070E086E00E942907C0CF1092F2012FB779
:1015E000F8948091A6029091A702A091A802B091D0
:1015F000A9022FBF4091AA025091AB026091AC02A8
:101600007091AD02841B950BA60BB70BC297A10579
:10161000B10500F581E10E9488038115B4E09B07C4
:1016200008F041C0209184013091850128173907C5
:1016300028F4909385018093840135C020910001A6
:10164000309101018217930770F590930101809307
:10165000000129C0809184019091850120910001B1
:1016600030910101821B930B90938301809382013F
:101670002FB7F8948091A6029091A702A091A8029A
:10168000B091A9022FBF8093AA029093AB02A093BE
:10169000AC02B093AD021092850110928401D092F9
:1016A0000101C09200010E942605D7CDF999FECF15
:1016B00092BD81BDF89A992780B50895A1E21A2EAE
:1016C000AA1BBB1BFD010DC0AA1FBB1FEE1FFF1FE6
:1016D000A217B307E407F50720F0A21BB30BE40B36
:1016E000F50B661F771F881F991F1A9469F760957D
:1016F0007095809590959B01AC01BD01CF01089537
:10170000052E97FB1EF400940E94970B57FD07D0FF
:101710000E945E0B07FC03D04EF40C94970B50957F
:101720004095309521953F4F4F4F5F4F08959095CD
:101730008095709561957F4F8F4F9F4F0895EE0F65
:10174000FF1F0590F491E02D0994A29FB001B39F73
:10175000C001A39F700D811D1124911DB29F700DBA
:10176000811D1124911D089581E090E0F8940C945E
:10177000C20BFB01DC018D91019080190110D9F39E
:08178000990B0895F894FFCFC6
:101788000004FF06011501260137014A015D0172B7
:101798000188019F01B801D201EE010B022A024B18
:1017A800026E029302BA02E40210033F037003A41C
:1017B80003DC031704000000009204FB032904045F
:1017C800055A0438044C04520031004C0033000020
:107800000C94343C0C94513C0C94513C0C94513CE1
:107810000C94513C0C94513C0C94513C0C94513CB4
:107820000C94513C0C94513C0C94513C0C94513CA4
:107830000C94513C0C94513C0C94513C0C94513C94
:107840000C94513C0C94513C0C94513C0C94513C84
:107850000C94513C0C94513C0C94513C0C94513C74
:107860000C94513C0C94513C11241FBECFEFD8E036
:10787000DEBFCDBF11E0A0E0B1E0ECE9FFE702C060
:1078800005900D92A230B107D9F712E0A2E0B1E065
:1078900001C01D92AD30B107E1F70E942D3D0C945F
:1078A000CC3F0C94003C982F959595959595959582
:1078B000905D8F708A307CF0282F295A8091C0000B
:1078C00085FFFCCF9093C6008091C00085FFFCCF60
:1078D0002093C6000895282F205DF0CF982F809127
:1078E000C00085FFFCCF9093C6000895EF92FF92F1
:1078F0000F931F93EE24FF2487018091C00087FD22
:1079000017C00894E11CF11C011D111D81E4E8164B
:1079100082E4F8068FE0080780E0180770F3E09132
:107920000401F091050109958091C00087FFE9CF1E
:107930008091C6001F910F91FF90EF9008950E94D3
:10794000763C982F8091C00085FFFCCF9093C600B5
:1079500091362CF490330CF09053892F089597555D
:10796000892F08951F930E949F3C182F0E949F3CCF
:107970001295107F810F1F9108951F93182F882350
:1079800021F00E94763C1150E1F71F9108951F935A
:10799000182F0E94763C803249F0809103018F5F5E
:1079A000809303018530C1F01F9108958091C0003C
:1079B00085FFFCCF84E18093C6008091C00085FFE5
:1079C000FCCF1093C6008091C00085FFFCCF80E102
:1079D0008093C6001F910895E0910401F091050184
:1079E00009951F9108950E94763C803241F0809164
:1079F00003018F5F80930301853081F008958091AA
:107A0000C00085FFFCCF84E18093C6008091C00058
:107A100085FFFCCF80E18093C6000895E0910401CA
:107A2000F09105010995089540E951E08823A1F0FE
:107A30002D9A28EE33E0FA013197F1F721503040CA
:107A4000D1F72D9828EE33E0FA013197F1F7215064
:107A50003040D1F7815061F708953F924F925F9285
:107A60006F927F928F929F92AF92BF92CF92DF924E
:107A7000EF92FF920F931F93CF93DF93000080E16B
:107A80008093C4001092C50088E18093C10086E015
:107A90008093C2005098589A259A81E00E94143D24
:107AA00024E1F22E9EE1E92E85E9D82E0FE0C02ECA
:107AB00010E1B12EAA24A394B1E49B2EA6E58A2E50
:107AC000F2E57F2EE0E26E2E79E4572E63E5462E36
:107AD00050E5352E0E94763C8033B1F18133B9F107
:107AE000803409F46FC0813409F476C0823409F41B
:107AF00085C0853409F488C0803531F1823521F1A3
:107B0000813511F1853509F485C0863509F48DC0BC
:107B1000843609F496C0843709F403C1853709F423
:107B200072C1863709F466C0809103018F5F80932C
:107B30000301853079F6E0910401F0910501099582
:107B40000E94763C803351F60E94F33CC3CF0E94E2
:107B5000763C803249F78091C00085FFFCCFF092DF
:107B6000C6008091C00085FFFCCF9092C600809136
:107B7000C00085FFFCCF8092C6008091C00085FFC9
:107B8000FCCF7092C6008091C00085FFFCCF609250
:107B9000C6008091C00085FFFCCF5092C600809146
:107BA000C00085FFFCCF4092C6008091C00085FFD9
:107BB000FCCF3092C6008091C00085FFFCCFB09210
:107BC000C60088CF0E94763C863808F4BDCF0E945C
:107BD000763C0E94F33C7ECF0E94763C803809F4CC
:107BE0009CC0813809F40BC1823809F43CC1883942
:107BF00009F48FC080E00E94C73C6CCF84E10E94F2
:107C0000BD3C0E94F33C66CF85E00E94BD3C0E94D3
:107C1000F33C60CF0E94763C809306010E94763C44
:107C2000809307010E94F33C55CF0E94763C80333D
:107C300009F41DC183E00E94BD3C80E00E94C73C66
:107C400049CF0E94763C809309020E94763C809343
:107C5000080280910C028E7F80930C020E94763C79
:107C6000853409F415C18091080290910902892B8D
:107C700089F000E010E00E94763CF801E85FFE4FDA
:107C800080830F5F1F4F80910802909109020817AF
:107C9000190788F30E94763C803209F045CF809125
:107CA0000C0280FF01C16091060170910701660F0F
:107CB000771F7093070160930601A0910802B091AD
:107CC00009021097C9F0E8E0F1E09B01AD014E0F09
:107CD0005F1FF999FECF32BD21BD819180BDFA9A17
:107CE000F99A2F5F3F4FE417F50799F76A0F7B1F4B
:107CF00070930701609306018091C00085FFFCCF5F
:107D0000F092C6008091C00085FFFCCFB092C60003
:107D1000E1CE83E00E94C73CDDCE82E00E94C73CFA
:107D2000D9CE0E94763C809309020E94763C8093D3
:107D300008028091060190910701880F991F909386
:107D40000701809306010E94763C853409F4A6C0A1
:107D500080910C028E7F80930C020E94763C8032D0
:107D600009F0B8CE8091C00085FFFCCFF092C6002C
:107D7000609108027091090261157105B9F140E046
:107D800050E080910C02A82FA170B82FB27011C0E2
:107D9000BB2309F45CC0E0910601F0910701319624
:107DA000F0930701E09306014F5F5F4F46175707B7
:107DB000E8F4AA2369F3F999FECF209106013091E6
:107DC000070132BD21BDF89A90B58091C00085FFB2
:107DD000FCCF9093C6002F5F3F4F30930701209355
:107DE00006014F5F5F4F4617570718F38091C00099
:107DF00085FDE5CE8091C00085FFF8CFE0CE81E023
:107E00000E94C73C67CE0E94763C803209F08CCE3F
:107E10008091C00085FFFCCFF092C6008091C00029
:107E200085FFFCCFE092C6008091C00085FFFCCFAB
:107E3000D092C6008091C00085FFFCCFC092C600E2
:107E40008091C00085FFFCCFB092C60043CEE09188
:107E50000601F091070194918091C00085FFFCCF4D
:107E60009093C6009CCF80E10E94C73C33CE0E9415
:107E7000763C0E94763C182F0E94763C112309F430
:107E800083C0113009F484C08FE00E94C73C22CE29
:107E900080910C02816080930C02E5CE80910C02EF
:107EA000816080930C0259CF809107018823880F4D
:107EB000880B8A2180930B02809106019091070123
:107EC000880F991F90930701809306018091080203
:107ED00080FF09C080910802909109020196909359
:107EE000090280930802F894F999FECF1127E091D6
:107EF0000601F0910701C8E0D1E08091080290915D
:107F00000902103091F40091570001700130D9F34B
:107F100003E000935700E89500915700017001308D
:107F2000D9F301E100935700E89509901990009169
:107F3000570001700130D9F301E000935700E89534
:107F40001395103498F011270091570001700130FB
:107F5000D9F305E000935700E895009157000170B0
:107F60000130D9F301E100935700E895329602976A
:107F700009F0C7CF103011F00296E5CF112480919F
:107F8000C00085FFB9CEBCCE8EE10E94C73CA2CD19
:0C7F900085E90E94C73C9ECDF894FFCF0D
:027F9C00800063
:040000030000780081
:00000001FF
