:1000000010C028C027C026C025C024C023C022C0DD
:1000100021C020C01FC0D9C01DC01CC01BC01AC039
:1000200019C011241FBECFEDCDBF10E0A0E6B0E097
:10003000EAE0F3E002C005900D92A636B107D9F7C9
:1000400020E0A6E6B0E001C01D92AF3AB207E1F7AA
:1000500000D159C1D5CFE091AC00F091AD00E40FD3
:10006000F11D908193702185891758F0981738F009
:10007000621738F081E0261728F080E0089581E0CB
:1000800008958FEF089589E690E09093AD008093F6
:10009000AC009C0180E2D90119969CED980FF90102
:1000A000819384501D928913FBCF2E5E3F4F843B7A
:1000B00091F7089520917F0080916D00282B809109
:1000C0009100282B21FD02C0217001C022E0EFE940
:1000D000F0E040E050E0DA01A759BF4F14968C9150
:1000E000149790E0982F88271D963C91830F911DBF
:1000F000022E02C0969587950A94E2F781934E5E90
:100100005F4F4633510539F70895AF92BF92CF92B2
:10011000DF92EF92FF920F931F93CF93DF93B62E50
:10012000D82FD3700091AC001091AD00F80180E0A1
:10013000C0E09081292F2C7F19F09450908301C04A
:10014000C82F8F5F31968930A1F74C2F6B2D8D2FE3
:1001500082DFE82E882331F1F82EF094FF1CFF2473
:10016000FF1CFF0CFF0CFF0CC82E880FDD08CF15FD
:10017000C9F0AC2EAE0C4A2D6B2D8D2F6CDFE81222
:1001800011C0EC2FCC0FFF0BDF01AC0DBD1DA00F7C
:10019000B11F8C91E00FF11F808319968C9181879C
:1001A000CA2DE5CFF801EC0FF11DC7FDFA95D0621D
:1001B000D083B186DF91CF911F910F91FF90EF9087
:1001C000DF90CF90BF90AF9008951F920F920FB61F
:1001D0000F9211248F939F93EF93FF9385EF82BF2C
:1001E0008091600090E00090670002C0959587952F
:1001F0000A94E2F780FF02C0DB9A01C0DB9880918D
:1002000067008F5F883019F08093670014C01092E8
:100210006700809168008F5F853018F480936800D4
:1002200002C010926800E0916800F0E0EF59FF4FC3
:10023000808180936000FF91EF919F918F910F904B
:100240000FBE0F901F90189580E887B985E886B992
:100250000895D39AF9DF82E083BF91E098BF80BF11
:1002600012BE89B7816089BF78940DDF04E210E087
:1002700082ECD82E90E2E92E29E2F22EC0E0D0E006
:1002800087B1807F8C2B87B9369A3699FECF0000D4
:1002900034B13093AE0025B12370822F90E090935B
:1002A000AB008093AA00CE0162E170E01BD0A801F0
:1002B000481B590BCA0187599F4F9093AD008093FB
:1002C000AC00632F822F21DF2196C330D105C1F608
:1002D000F1DEF894D0926300E0926400F092650041
:1002E0007894CCCF0024552704C0080E591F880FDE
:1002F000991F009729F076956795B8F37105B9F7BE
:0A030000802D952F0895F894FFCF8B
:06030A00FF00FF010101EC
:00000001FF
