:100000000C9491000C94B9000C94B9000C94B900B4
:100010000C94B9000C94B9000C94B9000C94B9007C
:100020000C94B9000C9471060C94B9000C94B900AE
:100030000C94B9000C94B9000C94B9000C94B9005C
:100040000C9457050C94B9000C9494010C946E0117
:100050000C94B9000C94B9000C94B9000C94B9003C
:100060000C94B9000C94B900FE09FE09FE090B0AB4
:10007000050A0B0A080A0B0A290AA40B230A2C0AF0
:10008000290AA40B230A330A5E0A7C0B000000082D
:10009000000201000003040700000000000000004F
:1000A0006E6F7468696E67002D30303030303030DC
:1000B00030303030303030303030303030002D3073
:1000C00030303030002D3030303030003030303093
:1000D0003300524F42424F2D000000000024002701
:1000E000002A0000000000250028002B000000006E
:1000F000002300260029000404040404040404026C
:1001000002020202020303030303030102040810B4
:100110002040800102040810200102040810200081
:10012000B70B11241FBECFEFD8E0DEBFCDBF11E06B
:10013000A0E0B1E0E6EDFDE102C005900D92A03334
:10014000B107D9F722E0A0E3B1E001C01D92A532CA
:10015000B207E1F710E0C1E9D0E004C02197FE0149
:100160000E94970DC039D107C9F70E948E070C94E1
:10017000E90E0C940000CF92DF92EF92FF920F9362
:100180001F93CF93DF936C017A018B01C0E0D0E025
:10019000CE15DF0589F0D8016D918D01D601ED9165
:1001A000FC910190F081E02DC6010995892B11F495
:1001B0007E0102C02196ECCFC701DF91CF911F9144
:1001C0000F91FF90EF90DF90CF900895089580E019
:1001D00090E00895FC01538D448D252F30E0842F4D
:1001E00090E0821B930B541710F0CF96089501975F
:1001F00008958AE791E00E94E80121E0892B09F443
:1002000020E0822F08950E94E40EEF92FF920F9358
:100210001F93CF93DF93EC0181E0888F9B8D8C8DB2
:10022000981305C0E889F989808185FD24C0F62EE0
:100230000B8D10E00F5F1F4F0F731127E02E8C8D79
:10024000E8120CC00FB607FCFACFE889F989808163
:1002500085FFF5CFCE010E949B02F1CF8B8DFE0171
:10026000E80FF11DE35AFF4FF0820B8FEA89FB89FB
:100270008081806207C0EE89FF896083E889F989FF
:1002800080818064808381E090E0DF91CF911F9135
:100290000F91FF90EF900895CF93DF93EC01888D3D
:1002A0008823C9F0EA89FB89808185FD05C0A8897A
:1002B000B9898C9186FD0FC00FB607FCF5CF808100
:1002C00085FFF2CFA889B9898C9185FFEDCFCE014A
:1002D0000E949B02E7CFDF91CF9108951F920F926A
:1002E0000FB60F9211242F933F934F935F936F9309
:1002F0007F938F939F93AF93BF93EF93FF938AE77F
:1003000091E00E949B02FF91EF91BF91AF919F916D
:100310008F917F916F915F914F913F912F910F90AE
:100320000FBE0F901F9018951F920F920FB60F924D
:1003300011242F938F939F93EF93FF93E0918A0162
:10034000F0918B018081E0919001F091910182FD0B
:1003500012C09081809193018F5F8F7320919401DF
:10036000821751F0E0919301F0E0E658FE4F958F2F
:100370008093930101C08081FF91EF919F918F91B4
:100380002F910F900FBE0F901F901895FC01918D2B
:10039000828D981761F0828DDF01A80FB11D5D96E7
:1003A0008C91928D9F5F9F73928F90E008958FEF55
:1003B0009FEF0895FC01918D828D981731F0828D09
:1003C000E80FF11D858D90E008958FEF9FEF089560
:1003D000FC01918D228D892F90E0805C9F4F821BC4
:1003E00091098F739927089580E090E0892B29F077
:1003F0000E94F90081110C9400000895833081F06F
:1004000028F4813099F08230A1F008958730A9F066
:100410008830B9F08430D1F4809180008F7D03C0A2
:10042000809180008F7780938000089584B58F77C6
:1004300002C084B58F7D84BD08958091B0008F7710
:1004400003C08091B0008F7D8093B0000895CF935A
:10045000DF93282F30E0F901E457FF4F8491F90131
:10046000E55FFE4FD491F901E950FF4FC491CC23D1
:1004700091F081110E94FE01EC2FF0E0EE0FFF1FC2
:10048000E351FF4FA591B491EC91ED2381E090E011
:1004900021F480E002C080E090E0DF91CF910895E8
:1004A0003FB7F8948091760190917701A0917801FF
:1004B000B091790126B5A89B05C02F3F19F0019690
:1004C000A11DB11D3FBFBA2FA92F982F8827820FDA
:1004D000911DA11DB11DBC01CD0142E0660F771F2A
:1004E000881F991F4A95D1F708950895CF93DF93F8
:1004F000EC0184E090E00E94B70DFC0110821182B3
:10050000128288858383CF01DF91CF910895CF93A5
:10051000DF93EC0184E090E00E94B70DFC018C8138
:1005200080838D8181838E8182838F818383CF01BC
:10053000DF91CF910895FC01848DDF01A80FB11DDB
:10054000A35ABF4F2C91848D90E001968F73992709
:10055000848FA689B7892C93A089B1898C918064F6
:100560008C93938D848D981306C00288F389E02DB7
:1005700080818F7D808308951F93CF93DF93282FF1
:1005800030E0F901E457FF4F8491F901E55FFE4F38
:10059000D491F901E950FF4FC491CC23C9F0162F33
:1005A00081110E94FE01EC2FF0E0EE0FFF1FED51D4
:1005B000FF4FA591B4918FB7F894111105C09C918C
:1005C000ED2FE095E92302C0EC91ED2BEC938FBF6A
:1005D000DF91CF911F910895CF93DF9390E0FC01BD
:1005E000E55FFE4F2491FC01E950FF4F8491882381
:1005F00061F190E0880F991FFC01E752FF4FC59110
:10060000D491FC01ED51FF4FA591B491611109C046
:100610009FB7F8948881209582238883EC912E23BC
:100620000BC0623061F49FB7F8943881822F8095B7
:1006300083238883EC912E2B2C939FBF06C08FB70A
:10064000F894E8812E2B28838FBFDF91CF910895F6
:10065000CF92DF92EF92FF920F931F93CF93DF938E
:10066000EC018A81882371F10E9450020C811D8166
:100670002E813F81DC01CB01801B910BA20BB30BC0
:1006800081339547A105B10508F467C061E08A850B
:100690000E94EC0261E08A850E94BC028FE190E03A
:1006A0000197F1F760E08A850E94BC0260E08A85CC
:1006B0000E94EC020E9450026C837D838E839F8394
:1006C0001A824BC00E9450020C811D812E813F81F5
:1006D000DC01CB01801B910BA20BB30B813A964836
:1006E000A140B10548F58B81882381F18A850E945C
:1006F0002702892B91F50E9450020C811D812E81C9
:100700003F816B017C01C01AD10AE20AF30AA701FA
:100710009601A0EDB4E80E949D0D20E834E84EE17A
:1007200050E00E94750D2850310937FD03C039870C
:10073000288702C0198618861B8281E08A830E945E
:1007400050026C837D838E839F8307C08A850E94BD
:100750002702019711F481E08B83DF91CF911F91E4
:100760000F91FF90EF90DF90CF9008959F92AF92FE
:10077000BF92CF92DF92EF92FF920F931F93CF938E
:10078000DF93EC01962EBA017727072E000C880B19
:10079000990B0E947C0C2AE939E949E750E40E9450
:1007A000E00C0E94440C6B017C015B010881198103
:1007B00061E0802F0E94EC02C114D10409F449C009
:1007C0008FEFC816D10409F446C0F801FF27E4579B
:1007D000FF4FE491E330F9F048F4E130B9F0E23052
:1007E000A1F584B5806284BDC8BC39C0E730E9F0AA
:1007F000E83019F1E43049F58091800080628093FF
:100800008000D0928B00C0928A0029C084B5806895
:1008100084BDC7BC24C08091800080688093800024
:10082000D0928900C09288001AC08091B000806880
:100830008093B000C092B30012C08091B00080627B
:100840008093B000C092B4000AC080E8A816B1043A
:1008500014F460E001C061E0802F0E94BC02992086
:1008600011F061E001C060E08A81DF91CF911F91BA
:100870000F91FF90EF90DF90CF90BF90AF909F903F
:100880000C94BC028E3008F08E5087708064809388
:100890007C0080917A00806480937A0080917A0055
:1008A00086FDFCCF809178002091790090E0922B1A
:1008B00008950F931F93CF93DF938C0184E090E012
:1008C0000E94B70DEC01188219821A82F801828108
:1008D0000E944204BC01990F880B990B0E947C0C6A
:1008E00020E030E040E85EE30E94E00C0E944B0C08
:1008F0006B83CE01DF91CF911F910F9108952FB798
:10090000F8946091720170917301809174019091DB
:1009100075012FBF0895CF92DF92EF92FF920F9350
:100920001F93CF93DF93EC01888581111DC01D8A31
:100930001E8A8A810E942702019709F092C00E94B4
:100940007F0409851A852B853C85DC01CB01801B42
:10095000910BA20BB30B8B379105A105B10508F4E0
:100960009DC081E088879AC08D89882309F480C062
:100970008A810E942702892B09F049C08E89882329
:1009800069F18885823079F030F48130A9F4898961
:100990008C8382E00BC0833059F0843069F48989FC
:1009A0008F83188609C089898D8383E0888704C076
:1009B00089898E8384E0FACF0E947F0469877A87D1
:1009C0008B879C8781E08D8B1E8A1D861E861F86E5
:1009D000188A198A1A8A1B8A1C8A43C00E947F04BB
:1009E00009891A892B893C89C984DA84EB84FC84BF
:1009F0000C191D092E093F09DC01CB01800F911F45
:100A0000A21FB31F898B9A8BAB8BBC8B2AC08989A1
:100A10009A89AB89BC89892B8A2B8B2B51F08D85C8
:100A20009E85AF85B889892B8A2B8B2B11F081E0AD
:100A30008E8B0E947F040D851E852F853889C98481
:100A4000DA84EB84FC840C191D092E093F09DC01B2
:100A5000CB01800F911FA21FB31F8D879E87AF8789
:100A6000B88B0E947F0469877A878B879C8716C022
:100A70008A810E942702892B89F40E947F0469875A
:100A80007A878B879C8781E08D8B1E8A1D861E86C8
:100A90001F86188A198A1A8A1B8A1C8ADF91CF91AD
:100AA0001F910F91FF90EF90DF90CF9008951F92CC
:100AB0000F920FB60F9211242F933F938F939F9312
:100AC000AF93BF938091720190917301A0917401D3
:100AD000B09175013091710123E0230F2D3720F47F
:100AE0000196A11DB11D05C026E8230F0296A11D88
:100AF000B11D209371018093720190937301A093B3
:100B00007401B09375018091760190917701A09165
:100B10007801B09179010196A11DB11D80937601F4
:100B200090937701A0937801B0937901BF91AF9131
:100B30009F918F913F912F910F900FBE0F901F901B
:100B40001895CF93482FC62F80911D0290911E02B9
:100B5000403420F0405450E061E002C050E060E0DA
:100B60000E94B60380911B0290911C02C03428F0B1
:100B700040EC4C0F50E061E003C04C2F50E060E0CF
:100B8000CF910C94B6030F931F93CF93DF9363E23F
:100B90008AE791E00E94050160E08AE791E00E9407
:100BA000050160E08AE791E00E94050160E08AE7C4
:100BB00091E00E94050160E08AE791E00E94050152
:100BC00060E08AE791E00E94050160E08AE791E039
:100BD0000E94050160E08AE791E00E94050160E063
:100BE0008AE791E00E940501CDE4D1E089919991D5
:100BF000DC01ED91FC910280F381E02D09958C01DF
:100C000044E050E0BC018AE791E00E94BB0001157E
:100C1000110519F0C8010E944C0EB1E0C735DB0781
:100C200029F760E08AE791E0DF91CF911F910F9162
:100C30000C940501CF93DF93EC01862F2AE131E07C
:100C4000398328831C821D821E821F8218861D867E
:100C50001E861F86188A198A1A8A1B8A1C8A1D8A70
:100C60001E8A6A837B8360E00E94EC020E947F04FC
:100C700069877A878B879C871886DF91CF91089543
:100C8000CF93DF93EB0122E131E0FC01318320833C
:100C90007383628360E08C2F0E94EC02C131D10526
:100CA000A1F044F4CF30D10569F06097B9F461E068
:100CB00087E010C0C231D10559F0639779F461E043
:100CC0008CE008C061E084E005C061E088E002C01B
:100CD00061E08BE0DF91CF910C94EC02DF91CF913A
:100CE00008951F920F920FB60F9211242F933F93E6
:100CF0004F935F936F937F938F939F93AF93BF9324
:100D0000EF93FF93809130018F5F8093300180914A
:100D100031012091300190E0FC01EE0FFF1F8E0F9A
:100D20009F1FFC01EE5CFE4F818182130FC08091FA
:100D3000310190E0FC01EE0FFF1F8E0F9F1FFC01A1
:100D4000EE5CFE4F82818093B20065C080913101DC
:100D50002091300190E0FC01EE0FFF1F8E0F9F1FCE
:100D6000FC01EE5CFE4F8181821708F054C0809137
:100D7000310190E0FC01EE0FFF1F8E0F9F1FFC0161
:100D8000EE5CFE4F808185FF10C08091310190E0C4
:100D9000FC01EE0FFF1F8E0F9F1FFC01EE5CFE4F4C
:100DA000808160E08F710E94BC02809131018F5F71
:100DB00080933101109230011092B2008091310184
:100DC000882319F1809131018930F8F48091310143
:100DD00090E0FC01EE0FFF1F8E0F9F1FFC01EE5CE9
:100DE000FE4F808185FF17C08091310190E0FC01AA
:100DF000EE0FFF1F8E0F9F1FFC01EE5CFE4F8081E8
:100E000061E08F710E94BC0206C08091310189307F
:100E100010F010923101FF91EF91BF91AF919F912E
:100E20008F917F916F915F914F913F912F910F9093
:100E30000FBE0F901F9018950F931F93CF93DF93C2
:100E40008C01C0E0D0E0F801EC0FFD1F6491662337
:100E500071F0E0917A01F0917B010190F081E02D39
:100E60008AE791E00995892B11F02196ECCFCE010C
:100E7000DF91CF911F910F9108958F929F92AF9222
:100E8000BF920F931F93CF93DF93CDB7DEB7A19798
:100E90000FB6F894DEBF0FBECDBF19A2423008F4E2
:100EA0004AE08E010F5D1F4F842E912CA12CB12C96
:100EB000A50194010E94750DE62FB901CA010150E8
:100EC0001109EA3014F4E05D01C0E95CD801EC934B
:100ED000232B242B252B61F70115110571F0F80147
:100EE00001900020E9F73197AF01401B510BB80189
:100EF0008AE791E00E94BB0002C080E090E0A196EA
:100F00000FB6F894DEBF0FBECDBFDF91CF911F911A
:100F10000F91BF90AF909F908F900895789484B573
:100F2000826084BD84B5816084BD85B5826085BDE5
:100F300085B5816085BD80916E00816080936E0073
:100F40001092810080918100826080938100809165
:100F50008100816080938100809180008160809316
:100F600080008091B10084608093B1008091B000D6
:100F700081608093B00080917A00846080937A00D1
:100F800080917A00826080937A0080917A008160FB
:100F900080937A0080917A00806880937A00109222
:100FA000C10083E00E9442048835924034F484E01A
:100FB0000E944204893C91051CF483E090E002C049
:100FC00084E090E090936F0180936E01E0918A013C
:100FD000F0918B0182E08083E0918601F09187019E
:100FE0001082E0918801F091890183E3808310925F
:100FF0009201E0918E01F0918F0186E08083E09173
:101000008C01F0918D01808180618083E0918C0161
:10101000F0918D01808188608083E0918C01F09156
:101020008D01808180688083E0918C01F0918D0139
:1010300080818F7D80838091810088608093810092
:1010400080915701811123C080E090E03BE027E5CB
:10105000FC01EE5CFE4F34832583039688319105B5
:10106000B9F78EE380933301109231011092300171
:10107000109270001092B00082E08093B100109244
:10108000B20081E087BB809370008093570180910C
:101090001F02882399F061E08DE00E94EC02E0914C
:1010A0001F02F0E0CF01880F991FE80FF91FEE5CD7
:1010B000FE4F8081807E8D608062808310927001FF
:1010C00084E090E00E94B70DEC0161E170E00E94C5
:1010D0004006D0934E01C0934D0184E090E00E9401
:1010E000B70DEC0162E170E00E944006D093500120
:1010F000C0934F0184E090E00E94B70DEC0160E1E5
:1011000070E00E944006D0935201C093510184E0E8
:1011100090E00E94B70DEC016FE070E00E94400685
:10112000D0935401C093530184E090E00E94B70D26
:10113000EC016EE070E00E944006D0935601C0932F
:1011400055010AE011E064E0262E312C7BE0872E69
:10115000912CE7E06E2E712C0E947F04C090170244
:10116000D0901802E0901902F0901A02DC01CB0135
:101170008C199D09AE09BF09813D9740A105B105B4
:10118000D0F0E0911D02F0911E02C08161E08C2F31
:101190000E94EC0260E08C2F0E94BC02E0911B02D6
:1011A000F0911C02C08161E08C2F0E94EC0260E093
:1011B0008C2F0E94BC028AE791E00E94E801892BF3
:1011C00009F4BDC08AE791E00E94C601EC010E94CB
:1011D0007F04609317027093180280931902909312
:1011E0001A02809170018111EEC09E0133272436CE
:1011F000310509F4B0C0B4F42136310509F4A5C0B5
:1012000044F42032310539F12132310509F49AC014
:1012100096C02236310509F49BC02336310509F406
:10122000CAC08DC02736310509F4ADC04CF425364F
:10123000310509F498C02636310509F49CC07FC0F9
:101240002936310509F4AFC00CF4A5C02A363105A2
:1012500009F4B1C074C082ED90E00E941C07C090F8
:101260006E01D0906F01F0E1CF16F7E2DF060CF5CA
:1012700060E38AE791E00E94050128EEC21623E0B0
:10128000D206BCF460E38AE791E00E94050184E69F
:10129000C816D10474F460E38AE791E00E94050166
:1012A0009AE0C916D1042CF460E38AE791E00E9429
:1012B00005010D2C000CEE08FF08F7FE14C0E091AC
:1012C0007A01F0917B010190F081E02D6DE28AE7D7
:1012D00091E0099566277727CB016C197D098E0966
:1012E0009F094AE003C04AE0C701B6010E943D07DA
:1012F0006DE28AE791E00E9405018CEC90E00E948B
:101300001C076DE28AE791E00E94050180916E0161
:1013100090916F01039711F06CE401C062E58AE7D8
:1013200091E00E94050185EC90E00E941C078EEB85
:1013300090E00E941C0788EA90E00E941C07CDE420
:10134000D1E005C280EA90E0F8CFC0936D0159C0AA
:10135000C0936D0156C082E08093700110926C01C1
:10136000C0936D01ECCF82E08093700110926C010C
:10137000C0936D01E4CF82E08093700110926C0104
:10138000C0936D01DCCF82E08093700110926C01FC
:10139000C0936D01D4CF82E08093700110926C01F4
:1013A000C0936D01CCCF82E08093700110926C01EC
:1013B000C0936D01C4CF82E08093700110926C01E4
:1013C000C0936D01BCCF823049F580916C01E82F4C
:1013D000F0E0E85AFE4FC0838F5F80936C01E0918C
:1013E0006D014E2F50E0FA01E356F109E830F105A6
:1013F00008F0A5CFEC5CFF4F0C94970D823008F4F9
:101400009ECF83E0809370019ACF8430D0F797CF3E
:101410008530B8F794CF8111F4CF91CF833009F0A4
:101420008ECF84E2C81390C1E0916D018E2F90E0C1
:10143000FC01E156F109EA30F10508F085C1E45CF0
:10144000FF4F0C94970D60915901809158010E94B3
:10145000A1050E94C30578C160915901809158018E
:101460000E94A10571C1C0915801C0FF02C061E096
:1014700001C060E084E00E94BC02C1FF02C061E0E4
:1014800001C060E087E00E94BC02C2FF02C061E0D0
:1014900001C060E088E00E94BC02C3FF02C061E0BE
:1014A00001C060E08BE00E94BC02C4FF02C061E0AA
:1014B00001C060E08CE00E94BC02CBCF4DE4C42EA2
:1014C00041E0D42E58E5A52E51E0B52EC0E0D0E085
:1014D000FF24F394D6018D919D916D010E944C0ED5
:1014E000F50181915F01863009F445C020F0873015
:1014F00009F4A9C0FBC0C230D105F9F024F4C13011
:10150000D10589F006C0C330D10509F1C430D10539
:1015100041F184E090E00E94B70D2C0161E170E0A0
:101520000E944006A7C084E090E00E94B70D2C0105
:1015300062E170E00E944006ABC084E090E00E944F
:10154000B70D2C0160E170E00E944006AFC084E05E
:1015500090E00E94B70D2C016FE070E00E94400601
:10156000B3C084E090E00E94B70D2C016EE070E003
:101570000E944006B7C0C230D10571F124F4C130D9
:10158000D105C9F007C0C330D105C9F1C430D105B8
:1015900009F446C08CE090E00E94B70DFC01118375
:1015A0000083F282118610863386228690934E0144
:1015B00080934D019BC08CE090E00E94B70DFC0130
:1015C00011830083F282118610867386628690935F
:1015D000500180934F018AC08CE090E00E94B70DCB
:1015E000FC0111830083F2821186108688E090E06E
:1015F00093878287F0935201E093510177C08CE08A
:1016000090E00E94B70DFC0111830083F2821186E5
:10161000108693868286909354018093530166C00E
:101620008CE090E00E94B70DFC0111830083F282F0
:10163000118610868CE090E093878287F0935601A4
:10164000E093550153C0C230D10539F124F4C130C3
:10165000D105A9F006C0C330D10569F1C430D10568
:10166000C1F187E190E00E94B70D2C0164E070E0C9
:101670000E941A0650924E0140924D0137C087E1F8
:1016800090E00E94B70D2C0167E070E00E941A06FE
:101690005092500140924F0129C087E190E00E9492
:1016A000B70D2C0168E070E00E941A0650925201BA
:1016B000409251011BC087E190E00E94B70D2C01C0
:1016C0006BE070E00E941A06509254014092530160
:1016D0000DC087E190E00E94B70D2C016CE070E036
:1016E0000E941A0650925601409255012196C5302B
:1016F000D10509F0EFCEADCE80915801E0911F02E7
:101700009FEF9E0F983008F0A4CEA6E18A9FC001FB
:101710001124805E9C4F893BBBE09B0714F088EB53
:101720009BE00897F0E09C01220F232F221F330B30
:10173000AF01440F551FE40FF51FEE5CFE4F2183F0
:10174000880F8095828385CE10927001F8CD8991A3
:101750009991DC01ED91FC910190F081E02D0995CA
:10176000B1E0C735DB0799F70E94F401F5CCCF93C0
:10177000DF9310927D0110927C0188EE93E0A0E04F
:10178000B0E080937E0190937F01A0938001B0939D
:10179000810182E291E090937B0180937A0185EC54
:1017A00090E0909387018093860184EC90E0909381
:1017B00089018093880180EC90E090938B01809365
:1017C0008A0181EC90E090938D0180938C0182ECF2
:1017D00090E090938F0180938E0186EC90E090933F
:1017E00091018093900110929301109294011092B4
:1017F00095011092960180912002883030F48F5F1D
:101800008093200280931F0202C010921F0284E086
:1018100090E00E94B70DEC0184E090E09B838A8306
:1018200085E090E09983888361E00E94EC0261E0AA
:101830008A810E94EC02D0931E02C0931D0284E0B4
:1018400090E00E94B70DEC0187E090E09B838A83D3
:1018500086E090E09983888361E00E94EC0261E079
:101860008A810E94EC02D0931C02C0931B020E944A
:101870007F0460931702709318028093190290936B
:101880001A02DF91CF9108950E944B0C6894B11118
:101890000C94DA0C08950E94BF0C88F09F5798F0C2
:1018A000B92F9927B751B0F0E1F0660F771F881F65
:1018B000991F1AF0BA95C9F714C0B13091F00E947F
:1018C000D90CB1E008950C94D90C672F782F882794
:1018D000B85F39F0B93FCCF3869577956795B395A6
:1018E000D9F73EF490958095709561957F4F8F4F15
:1018F0009F4F0895E89409C097FB3EF4909580951A
:10190000709561957F4F8F4F9F4F9923A9F0F92FC5
:1019100096E9BB279395F695879577956795B79543
:10192000F111F8CFFAF4BB0F11F460FF1BC06F5F29
:101930007F4F8F4F9F4F16C0882311F096E911C03B
:10194000772321F09EE8872F762F05C0662371F05C
:1019500096E8862F70E060E02AF09A95660F771F70
:10196000881FDAF7880F9695879597F9089557FDA0
:101970009058440F551F59F05F3F71F04795880FFD
:1019800097FB991F61F09F3F79F087950895121694
:1019900013061406551FF2CF4695F1DF08C0161640
:1019A00017061806991FF1CF8695710561050894F1
:1019B0000895E894BB2766277727CB0197F9089508
:1019C0000E94F30C0C94640D0E94560D38F00E9496
:1019D0005D0D20F0952311F00C944D0D0C94530DDA
:1019E00011240C94DA0C0E94B70C70F3959FC1F38C
:1019F000950F50E0551F629FF001729FBB27F00DBD
:101A0000B11D639FAA27F00DB11DAA1F649F662711
:101A1000B00DA11D661F829F2227B00DA11D621F60
:101A2000739FB00DA11D621F839FA00D611D221F1A
:101A3000749F3327A00D611D231F849F600D211DFE
:101A4000822F762F6A2F11249F5750409AF0F1F081
:101A500088234AF0EE0FFF1FBB1F661F771F881FEA
:101A600091505040A9F79E3F510580F00C944D0DC8
:101A70000C94DA0C5F3FE4F3983ED4F386957795A7
:101A80006795B795F795E7959F5FC1F7FE2B880F90
:101A9000911D9695879597F9089597F99F6780E826
:101AA00070E060E008959FEF80EC089500240A94B0
:101AB0001616170618060906089500240A94121629
:101AC0001306140605060895092E0394000C11F45C
:101AD000882352F0BB0F40F4BF2B11F460FF04C009
:101AE0006F5F7F4F8F4F9F4F0895A1E21A2EAA1B61
:101AF000BB1BFD010DC0AA1FBB1FEE1FFF1FA217BE
:101B0000B307E407F50720F0A21BB30BE40BF50BBA
:101B1000661F771F881F991F1A9469F76095709543
:101B2000809590959B01AC01BD01CF010895EE0F0A
:101B3000FF1F0590F491E02D09940E94A80DA59F28
:101B4000900DB49F900DA49F800D911D11240895B8
:101B5000A29FB001B39FC001A39F700D811D1124EE
:101B6000911DB29F700D811D1124911D0895CF9379
:101B7000DF938230910510F482E090E0E09123023F
:101B8000F091240220E030E0C0E0D0E0309711F185
:101B90004081518148175907C0F04817590761F42F
:101BA00082819381209719F09B838A832BC0909325
:101BB00024028093230226C02115310519F0421713
:101BC000530718F49A01BE01DF01EF010280F3818F
:101BD000E02DDCCF2115310509F1281B390B24300C
:101BE000310590F412968D919C91139761157105B2
:101BF00021F0FB019383828304C09093240280939D
:101C00002302FD01329644C0FD01E20FF31F8193D0
:101C10009193225031092D933C933AC02091210297
:101C200030912202232B41F42091020130910301D3
:101C30003093220220932102209100013091010172
:101C40002115310541F42DB73EB740910401509163
:101C50000501241B350BE0912102F0912202E217CD
:101C6000F307A0F42E1B3F0B2817390778F0AC01BF
:101C70004E5F5F4F2417350748F04E0F5F1F50939C
:101C80002202409321028193919302C0E0E0F0E0B0
:101C9000CF01DF91CF9108950F931F93CF93DF93DF
:101CA000009709F48CC0FC013297138212820091D4
:101CB0002302109124020115110581F42081318144
:101CC000820F931F20912102309122022817390799
:101CD00079F5F0932202E093210271C0D80140E02F
:101CE00050E0AE17BF0750F412962D913C91139718
:101CF000AD012115310509F1D901F3CF9D01DA01BB
:101D00003383228360817181860F971F8217930727
:101D100069F4EC0128813981260F371F2E5F3F4F70
:101D2000318320838A819B8193838283452B29F48D
:101D3000F0932402E093230242C01396FC93EE93A7
:101D40001297ED01499159919E01240F351FE21719
:101D5000F30771F480819181840F951F029611968B
:101D60009C938E938281938113969C938E9312976A
:101D7000E0E0F0E0D80112968D919C9113970097C6
:101D800019F0F8018C01F6CF8D919C9198012E5F8E
:101D90003F4F820F931F209121023091220228177A
:101DA000390769F4309729F4109224021092230223
:101DB00002C0138212821093220200932102DF914B
:101DC000CF911F910F91089581E090E0F8940C94C9
:061DD000E90EF894FFCFBC
:101DD60000002502800000000000280376020000B3
:101DE600000075025904000000008B048702000001
:101DF60000000501BB00EA004C01E801C601DA015A
:107E0000112484B714BE81FFF0D085E080938100F7
:107E100082E08093C00088E18093C10086E0809377
:107E2000C20080E18093C4008EE0C9D0259A86E02C
:107E300020E33CEF91E0309385002093840096BBD3
:107E4000B09BFECF1D9AA8958150A9F7CC24DD24C4
:107E500088248394B5E0AB2EA1E19A2EF3E0BF2EE7
:107E6000A2D0813461F49FD0082FAFD0023811F036
:107E7000013811F484E001C083E08DD089C08234E0
:107E800011F484E103C0853419F485E0A6D080C0E4
:107E9000853579F488D0E82EFF2485D0082F10E0AE
:107EA000102F00270E291F29000F111F8ED06801E7
:107EB0006FC0863521F484E090D080E0DECF843638
:107EC00009F040C070D06FD0082F6DD080E0C81688
:107ED00080E7D80618F4F601B7BEE895C0E0D1E017
:107EE00062D089930C17E1F7F0E0CF16F0E7DF06D8
:107EF00018F0F601B7BEE89568D007B600FCFDCFD4
:107F0000A601A0E0B1E02C9130E011968C91119780
:107F100090E0982F8827822B932B1296FA010C0160
:107F200087BEE89511244E5F5F4FF1E0A038BF0790
:107F300051F7F601A7BEE89507B600FCFDCF97BE46
:107F4000E89526C08437B1F42ED02DD0F82E2BD052
:107F50003CD0F601EF2C8F010F5F1F4F84911BD097
:107F6000EA94F801C1F70894C11CD11CFA94CF0C13
:107F7000D11C0EC0853739F428D08EE10CD085E9AC
:107F80000AD08FE07ACF813511F488E018D01DD067
:107F900080E101D065CF982F8091C00085FFFCCF94
:107FA0009093C60008958091C00087FFFCCF809118
:107FB000C00084FD01C0A8958091C6000895E0E648
:107FC000F0E098E1908380830895EDDF803219F02E
:107FD00088E0F5DFFFCF84E1DECF1F93182FE3DFCA
:107FE0001150E9F7F2DF1F91089580E0E8DFEE27F6
:047FF000FF270994CA
:027FFE00040479
:0400000300007E007B
:00000001FF
